{
  "_format": "hh-sol-artifact-1",
  "contractName": "Bets",
  "sourceName": "contracts/Bets.sol",
  "abi": [
    {
      "inputs": [],
      "stateMutability": "nonpayable",
      "type": "constructor"
    },
    {
      "anonymous": false,
      "inputs": [
        {
          "indexed": false,
          "internalType": "address",
          "name": "user",
          "type": "address"
        },
        {
          "indexed": false,
          "internalType": "uint256",
          "name": "gameId",
          "type": "uint256"
        },
        {
          "indexed": false,
          "internalType": "uint8",
          "name": "userBets",
          "type": "uint8"
        },
        {
          "indexed": false,
          "internalType": "uint8",
          "name": "totalBets",
          "type": "uint8"
        },
        {
          "indexed": false,
          "internalType": "uint256",
          "name": "timestamp",
          "type": "uint256"
        }
      ],
      "name": "betEvent",
      "type": "event"
    },
    {
      "anonymous": false,
      "inputs": [
        {
          "indexed": false,
          "internalType": "uint256",
          "name": "gameId",
          "type": "uint256"
        },
        {
          "indexed": false,
          "internalType": "uint256",
          "name": "timestamp",
          "type": "uint256"
        }
      ],
      "name": "newGame",
      "type": "event"
    },
    {
      "anonymous": false,
      "inputs": [
        {
          "indexed": false,
          "internalType": "address",
          "name": "user",
          "type": "address"
        },
        {
          "indexed": false,
          "internalType": "uint256",
          "name": "gameId",
          "type": "uint256"
        },
        {
          "indexed": false,
          "internalType": "uint8",
          "name": "number",
          "type": "uint8"
        },
        {
          "indexed": false,
          "internalType": "uint256",
          "name": "timestamp",
          "type": "uint256"
        }
      ],
      "name": "winnerEvent",
      "type": "event"
    },
    {
      "stateMutability": "nonpayable",
      "type": "fallback"
    },
    {
      "inputs": [
        {
          "internalType": "uint8",
          "name": "_number",
          "type": "uint8"
        }
      ],
      "name": "bet",
      "outputs": [],
      "stateMutability": "payable",
      "type": "function"
    },
    {
      "inputs": [],
      "name": "gameId",
      "outputs": [
        {
          "internalType": "uint256",
          "name": "",
          "type": "uint256"
        }
      ],
      "stateMutability": "view",
      "type": "function"
    },
    {
      "inputs": [],
      "name": "getBets",
      "outputs": [
        {
          "internalType": "uint8[]",
          "name": "",
          "type": "uint8[]"
        }
      ],
      "stateMutability": "view",
      "type": "function"
    },
    {
      "inputs": [],
      "name": "getLastGameData",
      "outputs": [
        {
          "internalType": "uint256",
          "name": "",
          "type": "uint256"
        },
        {
          "internalType": "uint8",
          "name": "",
          "type": "uint8"
        }
      ],
      "stateMutability": "view",
      "type": "function"
    },
    {
      "inputs": [],
      "name": "getProfile",
      "outputs": [
        {
          "components": [
            {
              "internalType": "uint256",
              "name": "gameId",
              "type": "uint256"
            },
            {
              "internalType": "uint8",
              "name": "number",
              "type": "uint8"
            },
            {
              "internalType": "bool",
              "name": "winner",
              "type": "bool"
            }
          ],
          "internalType": "struct Bets.Apuesta[]",
          "name": "",
          "type": "tuple[]"
        },
        {
          "internalType": "uint256",
          "name": "",
          "type": "uint256"
        }
      ],
      "stateMutability": "view",
      "type": "function"
    },
    {
      "inputs": [],
      "name": "getPublicData",
      "outputs": [
        {
          "components": [
            {
              "internalType": "uint256",
              "name": "gameId",
              "type": "uint256"
            },
            {
              "internalType": "uint256",
              "name": "date",
              "type": "uint256"
            },
            {
              "internalType": "address",
              "name": "winner",
              "type": "address"
            },
            {
              "internalType": "uint8",
              "name": "number",
              "type": "uint8"
            }
          ],
          "internalType": "struct Bets.Winner[]",
          "name": "",
          "type": "tuple[]"
        },
        {
          "internalType": "uint256",
          "name": "",
          "type": "uint256"
        },
        {
          "internalType": "uint8",
          "name": "",
          "type": "uint8"
        }
      ],
      "stateMutability": "view",
      "type": "function"
    },
    {
      "inputs": [
        {
          "internalType": "uint256",
          "name": "",
          "type": "uint256"
        }
      ],
      "name": "historical",
      "outputs": [
        {
          "internalType": "uint256",
          "name": "gameId",
          "type": "uint256"
        },
        {
          "internalType": "uint256",
          "name": "date",
          "type": "uint256"
        },
        {
          "internalType": "address",
          "name": "winner",
          "type": "address"
        },
        {
          "internalType": "uint8",
          "name": "number",
          "type": "uint8"
        }
      ],
      "stateMutability": "view",
      "type": "function"
    },
    {
      "inputs": [],
      "name": "n_bets",
      "outputs": [
        {
          "internalType": "uint8",
          "name": "",
          "type": "uint8"
        }
      ],
      "stateMutability": "view",
      "type": "function"
    },
    {
      "inputs": [
        {
          "internalType": "address",
          "name": "_dir",
          "type": "address"
        }
      ],
      "name": "userExists",
      "outputs": [
        {
          "internalType": "bool",
          "name": "",
          "type": "bool"
        }
      ],
      "stateMutability": "view",
      "type": "function"
    }
  ],
  "bytecode": "0x60806040523480156200001157600080fd5b50336000806101000a81548173ffffffffffffffffffffffffffffffffffffffff021916908373ffffffffffffffffffffffffffffffffffffffff1602179055506000600960006101000a81548160ff021916908360ff16021790555060018081905550620000856200008b60201b60201c565b62000189565b60005b60648160ff161015620000ed57600060048260ff1660648110620000b757620000b6620000f0565b5b602091828204019190066101000a81548160ff021916908360ff1602179055508080620000e4906200015b565b9150506200008e565b50565b7f4e487b7100000000000000000000000000000000000000000000000000000000600052603260045260246000fd5b7f4e487b7100000000000000000000000000000000000000000000000000000000600052601160045260246000fd5b600060ff82169050919050565b600062000168826200014e565b915060ff82036200017e576200017d6200011f565b5b600182019050919050565b611d2380620001996000396000f3fe60806040526004361061008a5760003560e01c8063bf7ce74211610059578063bf7ce7421461016d578063c232302f1461019a578063d0821b0e146101c5578063d6afc9b1146101e1578063d7c81b551461020d5761008b565b80630e666e4914610099578063410d448d146100d6578063a6afd5fd14610102578063bd1436f91461012d5761008b565b5b34801561009757600080fd5b005b3480156100a557600080fd5b506100c060048036038101906100bb9190611467565b610238565b6040516100cd91906114af565b60405180910390f35b3480156100e257600080fd5b506100eb6102e6565b6040516100f99291906114ff565b60405180910390f35b34801561010e57600080fd5b50610117610304565b60405161012491906115e6565b60405180910390f35b34801561013957600080fd5b50610154600480360381019061014f9190611634565b6103bf565b6040516101649493929190611670565b60405180910390f35b34801561017957600080fd5b5061018261042c565b604051610191939291906117d7565b60405180910390f35b3480156101a657600080fd5b506101af610531565b6040516101bc9190611815565b60405180910390f35b6101df60048036038101906101da919061185c565b610544565b005b3480156101ed57600080fd5b506101f6610a29565b604051610204929190611989565b60405180910390f35b34801561021957600080fd5b50610222610b12565b60405161022f91906119b9565b60405180910390f35b600080600090505b6008805490508110156102db578273ffffffffffffffffffffffffffffffffffffffff1660088281548110610278576102776119d4565b5b9060005260206000200160009054906101000a900473ffffffffffffffffffffffffffffffffffffffff1673ffffffffffffffffffffffffffffffffffffffff16036102c85760019150506102e1565b80806102d390611a32565b915050610240565b50600090505b919050565b600080600154600960009054906101000a900460ff16915091509091565b6060600260003373ffffffffffffffffffffffffffffffffffffffff1673ffffffffffffffffffffffffffffffffffffffff1681526020019081526020016000208054806020026020016040519081016040528092919081815260200182805480156103b557602002820191906000526020600020906000905b82829054906101000a900460ff1660ff168152602001906001019060208260000104928301926001038202915080841161037e5790505b5050505050905090565b600a81815481106103cf57600080fd5b90600052602060002090600302016000915090508060000154908060010154908060020160009054906101000a900473ffffffffffffffffffffffffffffffffffffffff16908060020160149054906101000a900460ff16905084565b6060600080600a600154600960009054906101000a900460ff1682805480602002602001604051908101604052809291908181526020016000905b82821015610520578382906000526020600020906003020160405180608001604052908160008201548152602001600182015481526020016002820160009054906101000a900473ffffffffffffffffffffffffffffffffffffffff1673ffffffffffffffffffffffffffffffffffffffff1673ffffffffffffffffffffffffffffffffffffffff1681526020016002820160149054906101000a900460ff1660ff1660ff168152505081526020019060010190610467565b505050509250925092509250909192565b600960009054906101000a900460ff1681565b60008160ff161015801561055c575060638160ff1611155b61059b576040517f08c379a000000000000000000000000000000000000000000000000000000000815260040161059290611ad7565b60405180910390fd5b66038d7ea4c6800034146105e4576040517f08c379a00000000000000000000000000000000000000000000000000000000081526004016105db90611b43565b60405180910390fd5b6000600260003373ffffffffffffffffffffffffffffffffffffffff1673ffffffffffffffffffffffffffffffffffffffff1681526020019081526020016000208054905011610692576008339080600181540180825580915050600190039060005260206000200160009091909190916101000a81548173ffffffffffffffffffffffffffffffffffffffff021916908373ffffffffffffffffffffffffffffffffffffffff1602179055505b600360003373ffffffffffffffffffffffffffffffffffffffff1673ffffffffffffffffffffffffffffffffffffffff16815260200190815260200160002060008260ff1660ff16815260200190815260200160002060009054906101000a900460ff1615610736576040517f08c379a000000000000000000000000000000000000000000000000000000000815260040161072d90611baf565b60405180910390fd5b6001600360003373ffffffffffffffffffffffffffffffffffffffff1673ffffffffffffffffffffffffffffffffffffffff16815260200190815260200160002060008360ff1660ff16815260200190815260200160002060006101000a81548160ff021916908315150217905550600260003373ffffffffffffffffffffffffffffffffffffffff1673ffffffffffffffffffffffffffffffffffffffff1681526020019081526020016000208190806001815401808255809150506001900390600052602060002090602091828204019190069091909190916101000a81548160ff021916908360ff160217905550600b60003373ffffffffffffffffffffffffffffffffffffffff1673ffffffffffffffffffffffffffffffffffffffff168152602001908152602001600020604051806060016040528060015481526020018360ff1681526020016000151581525090806001815401808255809150506001900390600052602060002090600202016000909190919091506000820151816000015560208201518160010160006101000a81548160ff021916908360ff16021790555060408201518160010160016101000a81548160ff021916908315150217905550505060048160ff1660648110610916576109156119d4565b5b6020918282040191900681819054906101000a900460ff168092919061093b90611bcf565b91906101000a81548160ff021916908360ff160217905550506009600081819054906101000a900460ff168092919061097390611bcf565b91906101000a81548160ff021916908360ff160217905550507f4be345ddfa18b764e7abc1358d95a93d88b2f09c7f1262367623672ee0a68eb733600154600260003373ffffffffffffffffffffffffffffffffffffffff1673ffffffffffffffffffffffffffffffffffffffff16815260200190815260200160002080549050600960009054906101000a900460ff1642604051610a16959493929190611bf8565b60405180910390a1610a26610b18565b50565b60606000600b60003373ffffffffffffffffffffffffffffffffffffffff1673ffffffffffffffffffffffffffffffffffffffff16815260200190815260200160002060015481805480602002602001604051908101604052809291908181526020016000905b82821015610b045783829060005260206000209060020201604051806060016040529081600082015481526020016001820160009054906101000a900460ff1660ff1660ff1681526020016001820160019054906101000a900460ff16151515158152505081526020019060010190610a90565b505050509150915091509091565b60015481565b60c8600960009054906101000a900460ff1660ff1610610ee6576000610b3c610ee8565b905060008160000b12610ee4576000610b5482610f8c565b90507f4acd53e41ceb2ec29396585a49f87f45e3f0447ee320153da928faf52352f900816001548442604051610b8d9493929190611c4b565b60405180910390a1600a604051806080016040528060015481526020014281526020018373ffffffffffffffffffffffffffffffffffffffff1681526020018460ff168152509080600181540180825580915050600190039060005260206000209060030201600090919091909150600082015181600001556020820151816001015560408201518160020160006101000a81548173ffffffffffffffffffffffffffffffffffffffff021916908373ffffffffffffffffffffffffffffffffffffffff16021790555060608201518160020160146101000a81548160ff021916908360ff160217905550505060005b6001600b60008473ffffffffffffffffffffffffffffffffffffffff1673ffffffffffffffffffffffffffffffffffffffff16815260200190815260200160002080549050610ccc9190611c90565b8111610e51578260ff16600b60008473ffffffffffffffffffffffffffffffffffffffff1673ffffffffffffffffffffffffffffffffffffffff1681526020019081526020016000208281548110610d2757610d266119d4565b5b906000526020600020906002020160010160009054906101000a900460ff1660ff16148015610db95750600154600b60008473ffffffffffffffffffffffffffffffffffffffff1673ffffffffffffffffffffffffffffffffffffffff1681526020019081526020016000208281548110610da557610da46119d4565b5b906000526020600020906002020160000154145b15610e3e576001600b60008473ffffffffffffffffffffffffffffffffffffffff1673ffffffffffffffffffffffffffffffffffffffff1681526020019081526020016000208281548110610e1157610e106119d4565b5b906000526020600020906002020160010160016101000a81548160ff021916908315150217905550610e51565b8080610e4990611a32565b915050610c7d565b5060004790508173ffffffffffffffffffffffffffffffffffffffff166108fc829081150290604051600060405180830381858888f19350505050158015610e9d573d6000803e3d6000fd5b50610ea661116d565b7f1b05c59423e117061eacfea22d61472cafc5adaef5f7ffac935d8975c891796560015442604051610ed9929190611cc4565b60405180910390a150505b505b565b6000806000905060008091505b60648260ff161015610f5457600160048360ff1660648110610f1a57610f196119d4565b5b602091828204019190069054906101000a900460ff1660ff1603610f415760019050610f54565b8180610f4c90611bcf565b925050610ef5565b80610f83577fffffffffffffffffffffffffffffffffffffffffffffffffffffffffffffffff92505050610f89565b81925050505b90565b6000806000905060005b6008805490508110156111255760005b6002600060088481548110610fbe57610fbd6119d4565b5b9060005260206000200160009054906101000a900473ffffffffffffffffffffffffffffffffffffffff1673ffffffffffffffffffffffffffffffffffffffff1673ffffffffffffffffffffffffffffffffffffffff16815260200190815260200160002080549050811015611105578460ff16600260006008858154811061104a576110496119d4565b5b9060005260206000200160009054906101000a900473ffffffffffffffffffffffffffffffffffffffff1673ffffffffffffffffffffffffffffffffffffffff1673ffffffffffffffffffffffffffffffffffffffff16815260200190815260200160002082815481106110c1576110c06119d4565b5b90600052602060002090602091828204019190069054906101000a900460ff1660ff16036110f25760019250611105565b80806110fd90611a32565b915050610fa6565b82156111115750611125565b50808061111d90611a32565b915050610f96565b60088181548110611139576111386119d4565b5b9060005260206000200160009054906101000a900473ffffffffffffffffffffffffffffffffffffffff1692505050919050565b6001600081548092919061118090611a32565b91905055506000600960006101000a81548160ff021916908360ff1602179055506111a96111b3565b6111b1611340565b565b60005b60088054905081101561132f5760005b60648160ff16101561129257600060036000600885815481106111ec576111eb6119d4565b5b9060005260206000200160009054906101000a900473ffffffffffffffffffffffffffffffffffffffff1673ffffffffffffffffffffffffffffffffffffffff1673ffffffffffffffffffffffffffffffffffffffff16815260200190815260200160002060008360ff1660ff16815260200190815260200160002060006101000a81548160ff021916908315150217905550808061128a90611bcf565b9150506111c6565b5060026000600883815481106112ab576112aa6119d4565b5b9060005260206000200160009054906101000a900473ffffffffffffffffffffffffffffffffffffffff1673ffffffffffffffffffffffffffffffffffffffff1673ffffffffffffffffffffffffffffffffffffffff168152602001908152602001600020600061131c919061139e565b808061132790611a32565b9150506111b6565b506008600061133e91906113c6565b565b60005b60648160ff16101561139b57600060048260ff1660648110611368576113676119d4565b5b602091828204019190066101000a81548160ff021916908360ff160217905550808061139390611bcf565b915050611343565b50565b50805460008255601f0160209004906000526020600020908101906113c391906113e7565b50565b50805460008255906000526020600020908101906113e491906113e7565b50565b5b808211156114005760008160009055506001016113e8565b5090565b600080fd5b600073ffffffffffffffffffffffffffffffffffffffff82169050919050565b600061143482611409565b9050919050565b61144481611429565b811461144f57600080fd5b50565b6000813590506114618161143b565b92915050565b60006020828403121561147d5761147c611404565b5b600061148b84828501611452565b91505092915050565b60008115159050919050565b6114a981611494565b82525050565b60006020820190506114c460008301846114a0565b92915050565b6000819050919050565b6114dd816114ca565b82525050565b600060ff82169050919050565b6114f9816114e3565b82525050565b600060408201905061151460008301856114d4565b61152160208301846114f0565b9392505050565b600081519050919050565b600082825260208201905092915050565b6000819050602082019050919050565b61155d816114e3565b82525050565b600061156f8383611554565b60208301905092915050565b6000602082019050919050565b600061159382611528565b61159d8185611533565b93506115a883611544565b8060005b838110156115d95781516115c08882611563565b97506115cb8361157b565b9250506001810190506115ac565b5085935050505092915050565b600060208201905081810360008301526116008184611588565b905092915050565b611611816114ca565b811461161c57600080fd5b50565b60008135905061162e81611608565b92915050565b60006020828403121561164a57611649611404565b5b60006116588482850161161f565b91505092915050565b61166a81611429565b82525050565b600060808201905061168560008301876114d4565b61169260208301866114d4565b61169f6040830185611661565b6116ac60608301846114f0565b95945050505050565b600081519050919050565b600082825260208201905092915050565b6000819050602082019050919050565b6116ea816114ca565b82525050565b6116f981611429565b82525050565b60808201600082015161171560008501826116e1565b50602082015161172860208501826116e1565b50604082015161173b60408501826116f0565b50606082015161174e6060850182611554565b50505050565b600061176083836116ff565b60808301905092915050565b6000602082019050919050565b6000611784826116b5565b61178e81856116c0565b9350611799836116d1565b8060005b838110156117ca5781516117b18882611754565b97506117bc8361176c565b92505060018101905061179d565b5085935050505092915050565b600060608201905081810360008301526117f18186611779565b905061180060208301856114d4565b61180d60408301846114f0565b949350505050565b600060208201905061182a60008301846114f0565b92915050565b611839816114e3565b811461184457600080fd5b50565b60008135905061185681611830565b92915050565b60006020828403121561187257611871611404565b5b600061188084828501611847565b91505092915050565b600081519050919050565b600082825260208201905092915050565b6000819050602082019050919050565b6118be81611494565b82525050565b6060820160008201516118da60008501826116e1565b5060208201516118ed6020850182611554565b50604082015161190060408501826118b5565b50505050565b600061191283836118c4565b60608301905092915050565b6000602082019050919050565b600061193682611889565b6119408185611894565b935061194b836118a5565b8060005b8381101561197c5781516119638882611906565b975061196e8361191e565b92505060018101905061194f565b5085935050505092915050565b600060408201905081810360008301526119a3818561192b565b90506119b260208301846114d4565b9392505050565b60006020820190506119ce60008301846114d4565b92915050565b7f4e487b7100000000000000000000000000000000000000000000000000000000600052603260045260246000fd5b7f4e487b7100000000000000000000000000000000000000000000000000000000600052601160045260246000fd5b6000611a3d826114ca565b91507fffffffffffffffffffffffffffffffffffffffffffffffffffffffffffffffff8203611a6f57611a6e611a03565b5b600182019050919050565b600082825260208201905092915050565b7f4e756d626572206d757374206265206265747765656e203020616e6420393900600082015250565b6000611ac1601f83611a7a565b9150611acc82611a8b565b602082019050919050565b60006020820190508181036000830152611af081611ab4565b9050919050565b7f302e303031204554482069732072657175697265640000000000000000000000600082015250565b6000611b2d601583611a7a565b9150611b3882611af7565b602082019050919050565b60006020820190508181036000830152611b5c81611b20565b9050919050565b7f5265706561746564206e756d6265720000000000000000000000000000000000600082015250565b6000611b99600f83611a7a565b9150611ba482611b63565b602082019050919050565b60006020820190508181036000830152611bc881611b8c565b9050919050565b6000611bda826114e3565b915060ff8203611bed57611bec611a03565b5b600182019050919050565b600060a082019050611c0d6000830188611661565b611c1a60208301876114d4565b611c2760408301866114f0565b611c3460608301856114f0565b611c4160808301846114d4565b9695505050505050565b6000608082019050611c606000830187611661565b611c6d60208301866114d4565b611c7a60408301856114f0565b611c8760608301846114d4565b95945050505050565b6000611c9b826114ca565b9150611ca6836114ca565b9250828203905081811115611cbe57611cbd611a03565b5b92915050565b6000604082019050611cd960008301856114d4565b611ce660208301846114d4565b939250505056fea26469706673582212202ef1cfbb2c1c661b8dbf4b01586fba56164f9ef1acaedca86ddabea728aac67564736f6c63430008120033",
  "linkReferences": {},
  "deployedLinkReferences": {}
}