{
  "_format": "hh-sol-artifact-1",
  "contractName": "Bets",
  "sourceName": "contracts/Bets.sol",
  "abi": [
    {
      "inputs": [],
      "stateMutability": "nonpayable",
      "type": "constructor"
    },
    {
      "anonymous": false,
      "inputs": [
        {
          "indexed": false,
          "internalType": "address",
          "name": "user",
          "type": "address"
        },
        {
          "indexed": false,
          "internalType": "uint256",
          "name": "gameId",
          "type": "uint256"
        },
        {
          "indexed": false,
          "internalType": "uint8",
          "name": "userBets",
          "type": "uint8"
        },
        {
          "indexed": false,
          "internalType": "uint8",
          "name": "totalBets",
          "type": "uint8"
        },
        {
          "indexed": false,
          "internalType": "uint256",
          "name": "timestamp",
          "type": "uint256"
        }
      ],
      "name": "betEvent",
      "type": "event"
    },
    {
      "anonymous": false,
      "inputs": [
        {
          "indexed": false,
          "internalType": "uint256",
          "name": "gameId",
          "type": "uint256"
        },
        {
          "indexed": false,
          "internalType": "uint256",
          "name": "timestamp",
          "type": "uint256"
        }
      ],
      "name": "newGame",
      "type": "event"
    },
    {
      "anonymous": false,
      "inputs": [
        {
          "indexed": false,
          "internalType": "address",
          "name": "user",
          "type": "address"
        },
        {
          "indexed": false,
          "internalType": "uint256",
          "name": "gameId",
          "type": "uint256"
        },
        {
          "indexed": false,
          "internalType": "uint8",
          "name": "number",
          "type": "uint8"
        },
        {
          "indexed": false,
          "internalType": "uint256",
          "name": "timestamp",
          "type": "uint256"
        }
      ],
      "name": "winnerEvent",
      "type": "event"
    },
    {
      "stateMutability": "nonpayable",
      "type": "fallback"
    },
    {
      "inputs": [
        {
          "internalType": "uint8",
          "name": "_number",
          "type": "uint8"
        }
      ],
      "name": "bet",
      "outputs": [],
      "stateMutability": "payable",
      "type": "function"
    },
    {
      "inputs": [],
      "name": "gameId",
      "outputs": [
        {
          "internalType": "uint256",
          "name": "",
          "type": "uint256"
        }
      ],
      "stateMutability": "view",
      "type": "function"
    },
    {
      "inputs": [],
      "name": "getBets",
      "outputs": [
        {
          "internalType": "uint8[]",
          "name": "",
          "type": "uint8[]"
        }
      ],
      "stateMutability": "view",
      "type": "function"
    },
    {
      "inputs": [],
      "name": "getLastGameData",
      "outputs": [
        {
          "internalType": "uint256",
          "name": "",
          "type": "uint256"
        },
        {
          "internalType": "uint8",
          "name": "",
          "type": "uint8"
        }
      ],
      "stateMutability": "view",
      "type": "function"
    },
    {
      "inputs": [],
      "name": "getProfile",
      "outputs": [
        {
          "components": [
            {
              "internalType": "uint256",
              "name": "gameId",
              "type": "uint256"
            },
            {
              "internalType": "uint8",
              "name": "number",
              "type": "uint8"
            },
            {
              "internalType": "bool",
              "name": "winner",
              "type": "bool"
            }
          ],
          "internalType": "struct Bets.Apuesta[]",
          "name": "",
          "type": "tuple[]"
        }
      ],
      "stateMutability": "view",
      "type": "function"
    },
    {
      "inputs": [],
      "name": "getPublicData",
      "outputs": [
        {
          "components": [
            {
              "internalType": "uint256",
              "name": "gameId",
              "type": "uint256"
            },
            {
              "internalType": "uint256",
              "name": "date",
              "type": "uint256"
            },
            {
              "internalType": "address",
              "name": "winner",
              "type": "address"
            },
            {
              "internalType": "uint8",
              "name": "number",
              "type": "uint8"
            }
          ],
          "internalType": "struct Bets.Winner[]",
          "name": "",
          "type": "tuple[]"
        },
        {
          "internalType": "uint256",
          "name": "",
          "type": "uint256"
        },
        {
          "internalType": "uint8",
          "name": "",
          "type": "uint8"
        }
      ],
      "stateMutability": "view",
      "type": "function"
    },
    {
      "inputs": [
        {
          "internalType": "uint256",
          "name": "",
          "type": "uint256"
        }
      ],
      "name": "historical",
      "outputs": [
        {
          "internalType": "uint256",
          "name": "gameId",
          "type": "uint256"
        },
        {
          "internalType": "uint256",
          "name": "date",
          "type": "uint256"
        },
        {
          "internalType": "address",
          "name": "winner",
          "type": "address"
        },
        {
          "internalType": "uint8",
          "name": "number",
          "type": "uint8"
        }
      ],
      "stateMutability": "view",
      "type": "function"
    },
    {
      "inputs": [],
      "name": "n_bets",
      "outputs": [
        {
          "internalType": "uint8",
          "name": "",
          "type": "uint8"
        }
      ],
      "stateMutability": "view",
      "type": "function"
    },
    {
      "inputs": [
        {
          "internalType": "address",
          "name": "_dir",
          "type": "address"
        }
      ],
      "name": "userExists",
      "outputs": [
        {
          "internalType": "bool",
          "name": "",
          "type": "bool"
        }
      ],
      "stateMutability": "view",
      "type": "function"
    }
  ],
  "bytecode": "0x60806040523480156200001157600080fd5b50336000806101000a81548173ffffffffffffffffffffffffffffffffffffffff021916908373ffffffffffffffffffffffffffffffffffffffff1602179055506000600860006101000a81548160ff021916908360ff16021790555060018081905550620000856200008b60201b60201c565b62000189565b60005b60638160ff161015620000ed57600060038260ff1660648110620000b757620000b6620000f0565b5b602091828204019190066101000a81548160ff021916908360ff1602179055508080620000e4906200015b565b9150506200008e565b50565b7f4e487b7100000000000000000000000000000000000000000000000000000000600052603260045260246000fd5b7f4e487b7100000000000000000000000000000000000000000000000000000000600052601160045260246000fd5b600060ff82169050919050565b600062000168826200014e565b915060ff82036200017e576200017d6200011f565b5b600182019050919050565b611c5180620001996000396000f3fe60806040526004361061008a5760003560e01c8063bf7ce74211610059578063bf7ce7421461016d578063c232302f1461019a578063d0821b0e146101c5578063d6afc9b1146101e1578063d7c81b551461020c5761008b565b80630e666e4914610099578063410d448d146100d6578063a6afd5fd14610102578063bd1436f91461012d5761008b565b5b34801561009757600080fd5b005b3480156100a557600080fd5b506100c060048036038101906100bb91906113a3565b610237565b6040516100cd91906113eb565b60405180910390f35b3480156100e257600080fd5b506100eb6102e5565b6040516100f992919061143b565b60405180910390f35b34801561010e57600080fd5b50610117610303565b6040516101249190611522565b60405180910390f35b34801561013957600080fd5b50610154600480360381019061014f9190611570565b6103be565b60405161016494939291906115ac565b60405180910390f35b34801561017957600080fd5b5061018261042b565b60405161019193929190611713565b60405180910390f35b3480156101a657600080fd5b506101af610530565b6040516101bc9190611751565b60405180910390f35b6101df60048036038101906101da9190611798565b610543565b005b3480156101ed57600080fd5b506101f6610a40565b60405161020391906118c5565b60405180910390f35b34801561021857600080fd5b50610221610b1e565b60405161022e91906118e7565b60405180910390f35b600080600090505b6007805490508110156102da578273ffffffffffffffffffffffffffffffffffffffff166007828154811061027757610276611902565b5b9060005260206000200160009054906101000a900473ffffffffffffffffffffffffffffffffffffffff1673ffffffffffffffffffffffffffffffffffffffff16036102c75760019150506102e0565b80806102d290611960565b91505061023f565b50600090505b919050565b600080600154600860009054906101000a900460ff16915091509091565b6060600260003373ffffffffffffffffffffffffffffffffffffffff1673ffffffffffffffffffffffffffffffffffffffff1681526020019081526020016000208054806020026020016040519081016040528092919081815260200182805480156103b457602002820191906000526020600020906000905b82829054906101000a900460ff1660ff168152602001906001019060208260000104928301926001038202915080841161037d5790505b5050505050905090565b600981815481106103ce57600080fd5b90600052602060002090600302016000915090508060000154908060010154908060020160009054906101000a900473ffffffffffffffffffffffffffffffffffffffff16908060020160149054906101000a900460ff16905084565b60606000806009600154600860009054906101000a900460ff1682805480602002602001604051908101604052809291908181526020016000905b8282101561051f578382906000526020600020906003020160405180608001604052908160008201548152602001600182015481526020016002820160009054906101000a900473ffffffffffffffffffffffffffffffffffffffff1673ffffffffffffffffffffffffffffffffffffffff1673ffffffffffffffffffffffffffffffffffffffff1681526020016002820160149054906101000a900460ff1660ff1660ff168152505081526020019060010190610466565b505050509250925092509250909192565b600860009054906101000a900460ff1681565b60008160ff161015801561055b575060638160ff1611155b61059a576040517f08c379a000000000000000000000000000000000000000000000000000000000815260040161059190611a05565b60405180910390fd5b670de0b6b3a764000034146105e4576040517f08c379a00000000000000000000000000000000000000000000000000000000081526004016105db90611a71565b60405180910390fd5b6000600260003373ffffffffffffffffffffffffffffffffffffffff1673ffffffffffffffffffffffffffffffffffffffff1681526020019081526020016000208054905011610692576007339080600181540180825580915050600190039060005260206000200160009091909190916101000a81548173ffffffffffffffffffffffffffffffffffffffff021916908373ffffffffffffffffffffffffffffffffffffffff1602179055505b6000805b600260003373ffffffffffffffffffffffffffffffffffffffff1673ffffffffffffffffffffffffffffffffffffffff1681526020019081526020016000208054905081101561077957600260003373ffffffffffffffffffffffffffffffffffffffff1673ffffffffffffffffffffffffffffffffffffffff168152602001908152602001600020818154811061073157610730611902565b5b90600052602060002090602091828204019190069054906101000a900460ff1660ff168360ff16036107665760019150610779565b808061077190611960565b915050610696565b5080156107bb576040517f08c379a00000000000000000000000000000000000000000000000000000000081526004016107b290611add565b60405180910390fd5b600260003373ffffffffffffffffffffffffffffffffffffffff1673ffffffffffffffffffffffffffffffffffffffff1681526020019081526020016000208290806001815401808255809150506001900390600052602060002090602091828204019190069091909190916101000a81548160ff021916908360ff160217905550600a60003373ffffffffffffffffffffffffffffffffffffffff1673ffffffffffffffffffffffffffffffffffffffff168152602001908152602001600020604051806060016040528060015481526020018460ff1681526020016000151581525090806001815401808255809150506001900390600052602060002090600202016000909190919091506000820151816000015560208201518160010160006101000a81548160ff021916908360ff16021790555060408201518160010160016101000a81548160ff021916908315150217905550505060038260ff166064811061092c5761092b611902565b5b6020918282040191900681819054906101000a900460ff168092919061095190611afd565b91906101000a81548160ff021916908360ff160217905550506008600081819054906101000a900460ff168092919061098990611afd565b91906101000a81548160ff021916908360ff160217905550507f4be345ddfa18b764e7abc1358d95a93d88b2f09c7f1262367623672ee0a68eb733600154600260003373ffffffffffffffffffffffffffffffffffffffff1673ffffffffffffffffffffffffffffffffffffffff16815260200190815260200160002080549050600860009054906101000a900460ff1642604051610a2c959493929190611b26565b60405180910390a1610a3c610b24565b5050565b6060600a60003373ffffffffffffffffffffffffffffffffffffffff1673ffffffffffffffffffffffffffffffffffffffff168152602001908152602001600020805480602002602001604051908101604052809291908181526020016000905b82821015610b155783829060005260206000209060020201604051806060016040529081600082015481526020016001820160009054906101000a900460ff1660ff1660ff1681526020016001820160019054906101000a900460ff16151515158152505081526020019060010190610aa1565b50505050905090565b60015481565b60c8600860009054906101000a900460ff1660ff1610610ef2576000610b48610ef4565b905060008160000b12610ef0576000610b6082610f98565b90507f4acd53e41ceb2ec29396585a49f87f45e3f0447ee320153da928faf52352f900816001548442604051610b999493929190611b79565b60405180910390a16009604051806080016040528060015481526020014281526020018373ffffffffffffffffffffffffffffffffffffffff1681526020018460ff168152509080600181540180825580915050600190039060005260206000209060030201600090919091909150600082015181600001556020820151816001015560408201518160020160006101000a81548173ffffffffffffffffffffffffffffffffffffffff021916908373ffffffffffffffffffffffffffffffffffffffff16021790555060608201518160020160146101000a81548160ff021916908360ff160217905550505060005b6001600a60008473ffffffffffffffffffffffffffffffffffffffff1673ffffffffffffffffffffffffffffffffffffffff16815260200190815260200160002080549050610cd89190611bbe565b8111610e5d578260ff16600a60008473ffffffffffffffffffffffffffffffffffffffff1673ffffffffffffffffffffffffffffffffffffffff1681526020019081526020016000208281548110610d3357610d32611902565b5b906000526020600020906002020160010160009054906101000a900460ff1660ff16148015610dc55750600154600a60008473ffffffffffffffffffffffffffffffffffffffff1673ffffffffffffffffffffffffffffffffffffffff1681526020019081526020016000208281548110610db157610db0611902565b5b906000526020600020906002020160000154145b15610e4a576001600a60008473ffffffffffffffffffffffffffffffffffffffff1673ffffffffffffffffffffffffffffffffffffffff1681526020019081526020016000208281548110610e1d57610e1c611902565b5b906000526020600020906002020160010160016101000a81548160ff021916908315150217905550610e5d565b8080610e5590611960565b915050610c89565b5060004790508173ffffffffffffffffffffffffffffffffffffffff166108fc829081150290604051600060405180830381858888f19350505050158015610ea9573d6000803e3d6000fd5b50610eb2611179565b7f1b05c59423e117061eacfea22d61472cafc5adaef5f7ffac935d8975c891796560015442604051610ee5929190611bf2565b60405180910390a150505b505b565b6000806000905060008091505b60648260ff161015610f6057600160038360ff1660648110610f2657610f25611902565b5b602091828204019190069054906101000a900460ff1660ff1603610f4d5760019050610f60565b8180610f5890611afd565b925050610f01565b80610f8f577fffffffffffffffffffffffffffffffffffffffffffffffffffffffffffffffff92505050610f95565b81925050505b90565b6000806000905060005b6007805490508110156111315760005b6002600060078481548110610fca57610fc9611902565b5b9060005260206000200160009054906101000a900473ffffffffffffffffffffffffffffffffffffffff1673ffffffffffffffffffffffffffffffffffffffff1673ffffffffffffffffffffffffffffffffffffffff16815260200190815260200160002080549050811015611111578460ff16600260006007858154811061105657611055611902565b5b9060005260206000200160009054906101000a900473ffffffffffffffffffffffffffffffffffffffff1673ffffffffffffffffffffffffffffffffffffffff1673ffffffffffffffffffffffffffffffffffffffff16815260200190815260200160002082815481106110cd576110cc611902565b5b90600052602060002090602091828204019190069054906101000a900460ff1660ff16036110fe5760019250611111565b808061110990611960565b915050610fb2565b821561111d5750611131565b50808061112990611960565b915050610fa2565b6007818154811061114557611144611902565b5b9060005260206000200160009054906101000a900473ffffffffffffffffffffffffffffffffffffffff1692505050919050565b6001600081548092919061118c90611960565b91905055506000600860006101000a81548160ff021916908360ff1602179055506111b56111bf565b6111bd61127c565b565b60005b60078054905081101561126b5760026000600783815481106111e7576111e6611902565b5b9060005260206000200160009054906101000a900473ffffffffffffffffffffffffffffffffffffffff1673ffffffffffffffffffffffffffffffffffffffff1673ffffffffffffffffffffffffffffffffffffffff168152602001908152602001600020600061125891906112da565b808061126390611960565b9150506111c2565b506007600061127a9190611302565b565b60005b60638160ff1610156112d757600060038260ff16606481106112a4576112a3611902565b5b602091828204019190066101000a81548160ff021916908360ff16021790555080806112cf90611afd565b91505061127f565b50565b50805460008255601f0160209004906000526020600020908101906112ff9190611323565b50565b50805460008255906000526020600020908101906113209190611323565b50565b5b8082111561133c576000816000905550600101611324565b5090565b600080fd5b600073ffffffffffffffffffffffffffffffffffffffff82169050919050565b600061137082611345565b9050919050565b61138081611365565b811461138b57600080fd5b50565b60008135905061139d81611377565b92915050565b6000602082840312156113b9576113b8611340565b5b60006113c78482850161138e565b91505092915050565b60008115159050919050565b6113e5816113d0565b82525050565b600060208201905061140060008301846113dc565b92915050565b6000819050919050565b61141981611406565b82525050565b600060ff82169050919050565b6114358161141f565b82525050565b60006040820190506114506000830185611410565b61145d602083018461142c565b9392505050565b600081519050919050565b600082825260208201905092915050565b6000819050602082019050919050565b6114998161141f565b82525050565b60006114ab8383611490565b60208301905092915050565b6000602082019050919050565b60006114cf82611464565b6114d9818561146f565b93506114e483611480565b8060005b838110156115155781516114fc888261149f565b9750611507836114b7565b9250506001810190506114e8565b5085935050505092915050565b6000602082019050818103600083015261153c81846114c4565b905092915050565b61154d81611406565b811461155857600080fd5b50565b60008135905061156a81611544565b92915050565b60006020828403121561158657611585611340565b5b60006115948482850161155b565b91505092915050565b6115a681611365565b82525050565b60006080820190506115c16000830187611410565b6115ce6020830186611410565b6115db604083018561159d565b6115e8606083018461142c565b95945050505050565b600081519050919050565b600082825260208201905092915050565b6000819050602082019050919050565b61162681611406565b82525050565b61163581611365565b82525050565b608082016000820151611651600085018261161d565b506020820151611664602085018261161d565b506040820151611677604085018261162c565b50606082015161168a6060850182611490565b50505050565b600061169c838361163b565b60808301905092915050565b6000602082019050919050565b60006116c0826115f1565b6116ca81856115fc565b93506116d58361160d565b8060005b838110156117065781516116ed8882611690565b97506116f8836116a8565b9250506001810190506116d9565b5085935050505092915050565b6000606082019050818103600083015261172d81866116b5565b905061173c6020830185611410565b611749604083018461142c565b949350505050565b6000602082019050611766600083018461142c565b92915050565b6117758161141f565b811461178057600080fd5b50565b6000813590506117928161176c565b92915050565b6000602082840312156117ae576117ad611340565b5b60006117bc84828501611783565b91505092915050565b600081519050919050565b600082825260208201905092915050565b6000819050602082019050919050565b6117fa816113d0565b82525050565b606082016000820151611816600085018261161d565b5060208201516118296020850182611490565b50604082015161183c60408501826117f1565b50505050565b600061184e8383611800565b60608301905092915050565b6000602082019050919050565b6000611872826117c5565b61187c81856117d0565b9350611887836117e1565b8060005b838110156118b857815161189f8882611842565b97506118aa8361185a565b92505060018101905061188b565b5085935050505092915050565b600060208201905081810360008301526118df8184611867565b905092915050565b60006020820190506118fc6000830184611410565b92915050565b7f4e487b7100000000000000000000000000000000000000000000000000000000600052603260045260246000fd5b7f4e487b7100000000000000000000000000000000000000000000000000000000600052601160045260246000fd5b600061196b82611406565b91507fffffffffffffffffffffffffffffffffffffffffffffffffffffffffffffffff820361199d5761199c611931565b5b600182019050919050565b600082825260208201905092915050565b7f4e756d626572206d757374206265206265747765656e203020616e6420393900600082015250565b60006119ef601f836119a8565b91506119fa826119b9565b602082019050919050565b60006020820190508181036000830152611a1e816119e2565b9050919050565b7f3120455448206973207265717569726564000000000000000000000000000000600082015250565b6000611a5b6011836119a8565b9150611a6682611a25565b602082019050919050565b60006020820190508181036000830152611a8a81611a4e565b9050919050565b7f5265706561746564206e756d6265720000000000000000000000000000000000600082015250565b6000611ac7600f836119a8565b9150611ad282611a91565b602082019050919050565b60006020820190508181036000830152611af681611aba565b9050919050565b6000611b088261141f565b915060ff8203611b1b57611b1a611931565b5b600182019050919050565b600060a082019050611b3b600083018861159d565b611b486020830187611410565b611b55604083018661142c565b611b62606083018561142c565b611b6f6080830184611410565b9695505050505050565b6000608082019050611b8e600083018761159d565b611b9b6020830186611410565b611ba8604083018561142c565b611bb56060830184611410565b95945050505050565b6000611bc982611406565b9150611bd483611406565b9250828203905081811115611bec57611beb611931565b5b92915050565b6000604082019050611c076000830185611410565b611c146020830184611410565b939250505056fea2646970667358221220a32310fd76415e95679a6412e96443fae6a5d6e5a37b5be8127d1786972e3c6d64736f6c63430008120033",
  "linkReferences": {},
  "deployedLinkReferences": {}
}